:020000040800F2
:10000000E0040020AD020008771F00080D1E000864
:10001000751F00081903000867270008000000008A
:10002000000000000000000000000000BD210008EA
:100030001B03000800000000791F0008BF21000812
:10004000C7020008C7020008C7020008C70200086C
:10005000C7020008C7020008C7020008C70200085C
:10006000C7020008C7020008C7020008C70200084C
:10007000C7020008C7020008C7020008C70200083C
:10008000C7020008C7020008C7020008C70200082C
:10009000C7020008C7020008C7020008C70200081C
:1000A000C7020008C7020008C7020008C70200080C
:1000B000C7020008C7020008C7020008C7020008FC
:1000C000C7020008C7020008C7020008C7020008EC
:1000D000C7020008C7020008C7020008C7020008DC
:1000E000C7020008C702000800000000C70200089D
:1000F000C7020008C7020008C7020008C7020008BC
:10010000C7020008C7020008C7020008C7020008AB
:10011000C7020008C7020008C7020008C70200089B
:10012000C7020008C7020008C7020008C70200088B
:10013000C7020008C7020008C7020008C70200087B
:1001400000000000000000000000000000000000AF
:10015000C7020008C7020008C7020008C70200085B
:10016000C7020008C7020008C7020008C70200084B
:10017000C7020008C7020008C7020008C70200083B
:10018000C7020008C7020008C7020008C70200082B
:10019000C7020008C7020008C7020008C70200081B
:1001A000C7020008C7020008C7020008C70200080B
:1001B000C7020008C7020008C7020008C7020008FB
:1001C000C7020008C7020008C7020008C7020008EB
:1001D000C7020008C7020008C7020008C7020008DB
:1001E000C7020008C7020008C7020008C7020008CB
:1001F000C7020008C7020008C7020008C7020008BB
:10020000C7020008C7020008C7020008C7020008AA
:10021000C7020008C7020008C7020008C70200089A
:10022000C7020008C7020008C7020008000000005B
:10023000C7020008C702000800000000C70200084B
:10024000C7020008C7020008C7020008C70200086A
:10025000C7020008C7020008C7020008C70200085A
:10026000C7020008C7020008C7020008C70200084A
:10027000C7020008C7020008C7020008000000000B
:10028000C7020008C7020008C702000800000000FB
:1002900000000000C7020008DFF80CD000F02AF8C8
:1002A00000480047A9270008E004002006488047CE
:1002B00006480047FEE7FEE7FEE7FEE7FEE7FEE74B
:1002C000FEE7FEE7FEE7FEE771220008990200085C
:1002D000D2B201E000F8012B491EFBD27047002288
:1002E000F6E710B513460A4604461946FFF7F0FF35
:1002F000204610BD064C074D06E0E06840F00103C3
:1003000094E8070098471034AC42F6D3FFF7C8FFD3
:1003100094280008B4280008FEE7704770B504462A
:1003200000F018F90546601C02D004480078044427
:1003300000F010F9401BA042FAD370BD000000206D
:100340002DE9F84F714C00234FF0B04E4FF00109EA
:100350004FF0030B4FF00F0AD0E000BF09FA03F88B
:1003600012EA080274D04D68022D01D0122D0FD16F
:10037000DD085F0700EB850500950E692D6AFF0E0D
:100380000AFA07FCBE4025EA0C052E43009D2E62AA
:100390005D000F7906680BFA05FC07F0030726EAF3
:1003A0000C06AF40374307604E68012E05D0022E81
:1003B00003D0112E01D0122E0FD18668CF6826EA05
:1003C0000C06AF403743876046680F7926EA080677
:1003D000C7F300179F4037434760C6688F6826EA17
:1003E0000C06AF403743C7604D68ED0030D5484D2F
:1003F0002E6846F002062E602D6823F0030606F1F3
:10040000B04605F0020500959D072F0FD6F8085459
:10041000DFF800810AFA07FC404525EA0C0502D105
:100420004FF0000C41E0DFF8F0C0604502D14FF022
:10043000010C3AE0DFF8E4C0604502D14FF0020C55
:1004400033E0DFF8DCC0604503D14FF0030C2CE053
:1004500053E0DFF8D0C0604502D14FF0040C24E037
:10046000DFF8C4C0604502D14FF0050C1DE0DFF895
:10047000BCC0604502D14FF0060C16E0DFF8B0C0FA
:10048000604502D14FF0070C0FE0DFF8A8C06045CF
:1004900002D14FF0080C08E0DFF89CC0604502D1A3
:1004A0004FF0090C01E04FF00A0C0CFA07FC4CEA83
:1004B000050CC6F808C425684E6825EA0205F6034F
:1004C00000D51543256065684E6825EA0205B60328
:1004D00000D5154365604F687546DEF80060FF0281
:1004E00026EA020600D516432E604F686E68BF02EA
:1004F00026EA020600D516436E605B1C0A6832FAD3
:1005000003F57FF42BAFBDE8F88F000080000058A2
:10051000F44402580000025800040258000802582F
:10052000000C02580010025800140258001802581B
:10053000001C025800200258002402580AB18161B0
:1005400070470904FBE7000001480068000C704791
:100550000010005C01488068704700000000002027
:1005600002488168027811448160704700000020D1
:10057000032010B500F076F800F02CFE0E490F4A6B
:100580000F4B0C68C4F30324145D04F01F04E04017
:100590001860096801F00F01515C01F01F01C840AB
:1005A00008490860002000F00FF808B1012010BDD4
:1005B00000F02AF8002010BD1844025884280008D2
:1005C0000C0000201000002070B50D4D0446287866
:1005D000A0B14FF47A71B1FBF0F00A490968B1FBA0
:1005E000F0F001F0C3F948B9102C07D200222146DF
:1005F000501E00F017F800206C6070BD012070BD27
:10060000000000200C000020054808B5016841F0FA
:1006100002010160006800F00200009008BD0000C7
:10062000F44402580E4BF0B41B680D46C3F302238A
:10063000C3F10706042E00D90426191D072901D28B
:10064000002300E0DB1E012404FA06F19C40491E51
:100650002940641E994014402143F0BC02F084B844
:100660000CED00E0064900F0070210B54FF6FF045C
:100670000868044B204040EA02201843086010BD7F
:100680000CED00E00000FA05124970B50A68520747
:1006900006D40A6802F00702824201D0012070BD30
:1006A0000A6822F0070202430A60FFF753FF094D70
:1006B0004FF47A760446083D07E000BFFFF74AFF93
:1006C000001BB04201D9032070BD28688004F5D515
:1006D000002070BD0C4802582DE9FC5F044650F81C
:1006E000241B002500902E460801FE4FDFF8F893EA
:1006F0001DD5606E50B1B0F5801F0CD0B0F5001F55
:100700000ED0B0F5401F1DD001250FE0386840F431
:100710000030386016E00221201D01F02FFC03E0BC
:100720000098022101F0BAFC05000BD02E4620886B
:10073000C00523D5606D05281ED2DFE800F00C113E
:10074000161B1B00626ED9F8001021F440111143F2
:10075000C9F80010EBE7386840F40030386009E071
:100760000021201D01F00AFC03E00098002101F0A7
:1007700095FC05466DB100E001252E4620888005D8
:1007800028D5A06D80281ED00CDC90B140280ED159
:1007900014E0626DD9F8001021F007011143C9F887
:1007A0000010EBE7C02813D0B0F5807F10D00125F2
:1007B0000FE0386840F40030386009E00021201D67
:1007C00001F0DCFB03E00098002101F067FC054626
:1007D00095B12E462088DFF81083400508F10808FF
:1007E0002CD5D4F8A400B0F5800F20D00DDCA0B13A
:1007F000B0F5001F0FD115E0A26DD9F8001021F45B
:10080000E0711143C9F80010E4E7B0F5C00F13D050
:10081000B0F5000F10D001250FE0386840F400302B
:10082000386009E00021201D01F0A8FB03E00098DA
:10083000002101F033FC054675B12E4620880005E5
:100840002DD5D4F8A800B0F1007F21D00EDCA8B1DE
:10085000B0F1807F10D116E0D4F8A420D8F80010B1
:1008600021F460011143C8F80010E7E7B0F1407FC0
:1008700013D0B0F1806F10D001250FE0386840F43C
:100880000030386009E00021201D01F077FB03E013
:100890000098002101F002FC05466DB12E4620684B
:1008A00080011FD5A06CD8B110280FD0202812D0FD
:1008B000302815D0012514E0D4F8A820D8F800106D
:1008C00021F0E0611143C8F80010E8E7386840F40F
:1008D0000030386004E00221201D01F04FFB054686
:1008E0006DB12E462088C0042BD5E06DB0F5005FB9
:1008F00020D00DDCA0B1B0F5805F0FD115E07A48B3
:10090000A26C001F016821F0300111430160E9E78A
:10091000B0F5405F13D0B0F5804F10D001250FE047
:10092000386840F40030386009E00021201D01F0F3
:1009300025FB03E00098002101F0B0FB054685B1DE
:100940002E462088800429D5206EB0F5403F23D064
:1009500010DC08B3B0F5803F14D0B0F5003F0FD1E4
:1009600015E0E26DD9F8001021F4E0411143C9F817
:100970000010E6E7B0F5802F0ED0B0F5A02F0BD019
:1009800001250AE00121201D01F0F8FA03E000989A
:10099000012101F083FB05468DB12E4620884004DD
:1009A0002AD5D4F8AC00B0F1405F23D010DC08B3F6
:1009B000B0F1805F14D0B0F1005F0FD115E0226E6E
:1009C000D9F8001021F4E0211143C9F80010E5E73F
:1009D000B0F1804F0ED0B0F1A04F0BD001250AE04E
:1009E0000121201D01F0CAFA03E00098012101F065
:1009F00055FB05466DB12E46208800041FD5E06EDC
:100A0000D8B1B0F1805F0ED0B0F1005F10D00125F9
:100A100014E0D4F8AC20D8F8001021F0E0411143E4
:100A2000C8F80010E8E7386840F40030386004E0A7
:100A30000121201D01F0A2FA05466DB12E46206865
:100A4000C0011ED5606CD0B101280ED0022811D093
:100A5000032814D0012513E0E26ED9F8001021F02C
:100A600040511143C9F80010E9E7386840F40030FC
:100A7000386004E00221201D01F080FA054685B1AE
:100A80002E462068DFF85CB04002ABF11C0B57D556
:100A90001648016841F480710160FFF75BFD8246F2
:100AA0000EE01148626C001F016821F00301114340
:100AB0000160E6E7FFF74EFDA0EB0A0064283DD891
:100AC0000A480068C005F5D57DBBDFF81CA0B4F866
:100AD000B0100AF1200ADAF8000001F4407100F4C5
:100AE000407005E02C440258504402580048025817
:100AF000884211D0DAF80010DAF8002021F44071B1
:100B000042F48032CAF80020DAF8002022F4803261
:100B1000CAF80020CAF80010D4F8B000B0F5807F01
:100B200021D1FFF717FD019019E008E0FFF712FD52
:100B30000199411A41F28830814210D903252E468D
:100B40002078DFF82CA4C0073DD0A06F182838D03B
:100B500026DC80B3082829D0102825D12CE0DAF82B
:100B600000008007E2D5D4F8B010C1F301200328BB
:100B700058460DD0016821F47C510160B4F8B020D2
:100B8000DAF80010C2F30B021143CAF80010D7E7DD
:100B9000F84A036802EA111223F47C511143ECE78E
:100BA00020280ED028280CD001250BE00121201D83
:100BB00001F0E4F904E004E00098012101F06EFA8C
:100BC00005465DB12E46207880071ED5606F062849
:100BD00019D2DFE800F0160C11161616A26FDAF81B
:100BE000001021F038011143CAF80010EBE7012191
:100BF000201D01F0C3F903E00098012101F04EFA35
:100C0000054675B100E001252E46207840071FD526
:100C1000D4F89000062819D2DFE800F0160C11165F
:100C20001616626FDAF8001021F007011143CAF8B6
:100C30000010EAE70121201D01F0A0F903E000986F
:100C4000012101F02BFA05469DB100E001252E4659
:100C5000207880062BD5D4F88C00B0F1405F24D0EA
:100C600011DC10B3B0F1805F15D0B0F1005F10D18E
:100C700016E0D4F89020D8F8001021F007011143B5
:100C8000C8F80010E4E7B0F1804F0ED0B0F1A04FEB
:100C90000BD001250AE00021201D01F06FF903E0CF
:100CA0000098022101F0FAF905468DB12E46207810
:100CB00040062BD5D4F89800B0F5406F24D011DC55
:100CC00010B3B0F5806F15D0B0F5006F10D116E0FD
:100CD000D4F88C20DAF8001021F0E0411143CAF872
:100CE0000010E4E7B0F5805F0ED0B0F5A05F0BD048
:100CF00001250AE00021201D01F040F903E00098E1
:100D0000022101F0CBF905468DB12E462078000670
:100D10002BD5D4F89C00B0F5C04F24D011DC10B313
:100D2000B0F5005F15D0B0F5804F10D116E0D4F8C3
:100D30009820D8F8001021F4E0511143C8F80010B1
:100D4000E4E7B0F5004F0ED0B0F5204F0BD00125F1
:100D50000AE00021201D01F011F903E000980221B2
:100D600001F09CF9054665B32E46207800070BD5A7
:100D7000D4F88010B1F5805F2DD0DAF8002022F48D
:100D800040520A43CAF800202078C0060BD5D4F898
:100D90009410B1F5807F26D0D8F8002022F440725C
:100DA0000A43C8F800202068000330D5D4F8A0001A
:100DB00008B3B0F5803F23D0B0F5003F25D0012522
:100DC00024E0D4F89C20D8F8001021F460411143AD
:100DD000C8F80010C9E70098022101F05FF9002867
:100DE000D2D00126D0E70098022101F057F900285F
:100DF000D9D00126D7E70021201D01F0BFF803E07C
:100E00000098022101F04AF9054685B12E46206876
:100E1000400322D5D4F88400B0F5801F11D0B0F57E
:100E2000001F13D0B0F5401F15D0012514E0D4F8F1
:100E3000A020D8F8001021F440311143C8F8001068
:100E4000E5E7386840F40030386004E0009801219C
:100E500001F024F9054655B12E462068C0031CD583
:100E6000E06C70B1B0F5803F10D0012514E0D4F8EB
:100E70008420DAF8001021F440111143CAF8001060
:100E8000EBE7386840F40030386004E00221201DB0
:100E900001F074F80546CDB12E462068800005D5D6
:100EA0000098022101F0FAF800B1012620688003C1
:100EB0001BD5E06FB8B1B0F5807F10D0B0F5007FE2
:100EC00011D0B0F5407F0ED001250DE02848E26C2E
:100ED0000838016821F4803111430160DDE738688A
:100EE00040F400303860EDB32E462068C00207D5CC
:100EF000226FD9F8001021F000411143C9F8001009
:100F00002068C00008D5D4F8B420DBF8001021F424
:100F100080411143CBF800102068800207D5A26EF3
:100F2000D9F8001021F080711143C9F80010206831
:100F300040000CD5DBF8001021F40041CBF8001084
:100F4000DBF80010D4F8B8201143CBF8001020686B
:100F5000002809DA0648226D0838016821F040515E
:100F6000114300E008E001607EB10120BDE8FC9F74
:100F700054440258CFFFFF00E26FDAF8001021F46A
:100F800040711143CAF80010AFE70020EEE70000FF
:100F90002DE9F05F04000F467ED0DFF82482D8F8F8
:100FA000000000F00F00B8420CD2D8F8001021F079
:100FB0000F013943C8F80010D8F8000000F00F0006
:100FC000B84269D120787F4D40070AD52069296849
:100FD00001F07001884204D9296821F070010143B1
:100FE00029602078774E361D00070AD56069316880
:100FF00001F07001884204D9316821F07001014389
:1010000031602078C0060AD5A069316801F4E0613A
:10101000884204D9316821F4E061014331602078CD
:10102000DFF8A0B180060BF1080B0CD5E16958463A
:10103000DBF8002002F07002914204D9026822F02D
:1010400070020A430260207880070AD5E0682968A8
:1010500001F00F01884204D9296821F00F010143F2
:1010600029602078C0073ED05649A2682868183900
:1010700020F47060104328606068022818D00328AC
:1010800019D00968012819D0490700294ADADFF880
:1010900034A1AAF1080A00E044E0DAF8002022F0C6
:1010A00007020243CAF80020FFF754FA814612E013
:1010B00009688903E9E709688901E6E7C905E4E702
:1010C000FFF748FAA0EB090141F28830814202D9CA
:1010D0000320BDE8F09F6168DAF8000000F03800F6
:1010E000B0EBC10FECD1207880070AD5E068296801
:1010F00001F00F01884204D2296821F00F01014359
:101100002960D8F80010404601F00F01B9420BD910
:10111000016821F00F0139430160006800F00F0001
:10112000B84201D00120D4E7207840070AD52069D1
:10113000296801F07001884204D2296821F0700109
:1011400001432960207800070AD56069316801F001
:101150007001884204D2316821F07001014331608E
:101160002078C0060AD5A069316801F4E0618842A0
:1011700004D2316821F4E0610143316020788006B7
:101180000CD5E1695846DBF8002002F0700291426C
:1011900004D2026822F070020A43026000F01AF8DA
:1011A0002968094AC1F30321515C01F01F01C840BD
:1011B0000649086006480068BDE8F05FFFF704BA1A
:1011C0000020005218440258842800080C00002017
:1011D00004000020454970B545480968434B103B61
:1011E00011F0380208D00111082A03D0102A0BD0C0
:1011F000182A0BD0084670BD19688906FBD51968F6
:10120000C1F3C101C84070BD3A4870BD3749374D80
:1012100018310C1D24350A68096826682D6802F00B
:10122000030406F00102C1F30511C5F3CC0515FB5B
:1012300002F200EE102AB8EE400AE9B32F4ADFEDC1
:101240002E0AB7EE001A6CB1DFED2D1A012C01D079
:10125000022C43D002EE101A1068F8EE422A81EEFA
:10126000A22A1EE01C68A40611D51B6801EE901A84
:101270001168C3F3C103F8EE612AD84001EE900A69
:10128000C1F30800F8EE611A81EEA22A0BE001EE2C
:10129000901ADFED1C2A00BFF8EE611A106882EE8A
:1012A000A12AC0F3080001EE900AF8EE611A40EEA0
:1012B000201A31EE810A00E015E022EE000A1068E3
:1012C000C0F34620401C00EE900AF8EE600A80EE63
:1012D000201ABCEEC10A10EE100A70BD01EE901A81
:1012E000DFED092AD8E7002070BD00001044025845
:1012F0000090D00340787D0100000039304402584E
:101300000024744A0024744C20BCBE4B2DE9F05FCD
:1013100004007DD0FF4F2078FE4D1837DFF8F4939E
:10132000103DC00748D0D9F80000396800F03800F7
:10133000102815D0182803D101F0030002280FD07F
:101340006068B0F5803F12D010B1B0F5A02F18D072
:10135000286820F480302860286820F4802009E084
:101360002868800328D560680028D2D024E0286847
:1013700040F480302860606888B1FFF7EBF80646DB
:1013800009E0286840F480202860F0E7FFF7E2F8E1
:10139000801B64286FD828688003F7D50CE0FFF71E
:1013A000D9F8064605E000BFFFF7D4F8801B642893
:1013B000F0D828688003F7D4207841F20308D54E8E
:1013C0000C3E800761D5D9F80000396810F038006C
:1013D0000ED0182801D188070AD0E06880B32968A8
:1013E00021F0190101432960FFF7B4F882462FE08C
:1013F0002868400702D5E06800288AD0E16828689C
:1014000020F0190008432860FFF7A4F8824607E09F
:10141000D1E000BFFFF79EF8A0EB0A000228B9D880
:1014200028684007F6D500BFFFF78EF8404513D86F
:101430002069316821F47C3141EA0030306024E0D9
:1014400011E000BFFFF786F8A0EB0A000228A1D840
:1014500028684007F6D5E7E7207C316821F0FE4197
:1014600041EA0060EAE7286820F001002860FFF701
:1014700071F8824606E0FFE0FFF76CF8A0EB0A0087
:10148000022887D828684007F6D42078C00657D5A8
:10149000D9F80000DFF87CB2396800F03800ABF111
:1014A000040B082810D0182803D101F003000128EC
:1014B0000AD0E0690028286832D040F08000286017
:1014C000FFF748F8824623E02868C00523D5E06985
:1014D000802870D11FE000BF94F82000316821F00F
:1014E000F84141EA806030602AE000BF94F82010A3
:1014F000DBF8002022F07C5242EA0161CBF80010B8
:101500001EE000BFFFF726F8A0EB0A00022886D8ED
:101510002868C005F6D5FFF717F84045E6D8DBE7A1
:1015200020F080002860FFF715F8064605E000BFB0
:10153000FFF710F8801B022889D82868C005F7D467
:101540002078000729D573486169643000298046F6
:10155000016811D041F001010160FEF7FBFF064672
:1015600005E000BFFEF7F6FF801B022889D8D8F8F7
:1015700000008007F6D510E021F001010160FEF7C0
:10158000E9FF064605E000BFFEF7E4FF801B0228E6
:1015900072D8D8F800008007F6D42078800623D5CA
:1015A000A0690028286810D040F480502860FEF719
:1015B000D1FF064605E0E6E0FEF7CCFF801B0228DF
:1015C0005AD828688004F7D50EE020F480502860AF
:1015D000FEF7C0FF064604E0FEF7BCFF801B0228B2
:1015E0004AD828688004F7D4207840074FD5DFF820
:1015F0002881D8F8001041F48071C8F80010FEF777
:10160000A9FF064605E000BFFEF7A4FF801B642883
:1016100032D8D8F80000C005F6D53E4EA068603636
:1016200001280AD008B1052813D0306820F0010045
:101630003060306820F0040002E0306840F00100C3
:101640003060A06841F2883A90B1FEF783FF80468F
:101650000AE0306840F004003060EEE7FEF77AFF01
:10166000A0EB0801514507D830688007F6D50EE099
:10167000FEF770FF804607E084E000BFFEF76AFFD8
:10168000A0EB080151457DD830688007F6D4606A28
:10169000F0B3D9F80010C1F3C201032973D00228B6
:1016A000286820F08070286003D0FEF753FF0446BE
:1016B00080E0FEF74FFF064605E000BFFEF74AFF59
:1016C000801B022873D828688001F7D4E26A40F2B0
:1016D000F331386854F8283F884340EA0210184331
:1016E0003860217B4FF4FE0C22894FF0FE47208AA0
:1016F0004902084B521E267DA1F5007189B2401E99
:10170000C2F3080220331143761E0CEA004005E0C4
:1017100053E000001044025800480258014307EA11
:101720000662181F114319601A1D016821F001019A
:10173000016011684FF6F876236AB14341EAC301AC
:1017400011600168A26921F00C0111430160016878
:10175000E26921F0020111430160016841F4803126
:101760000160016841F400310160016841F48021A9
:101770000160016841F001010160286840F080705B
:10178000286001E013E01AE0FEF7E4FE044604E0FE
:10179000FEF7E0FE001B022809D828688001F7D573
:1017A0000BE000BFFEF7D6FE001B022802D9032083
:1017B000BDE8F09F28688001F4D40020F8E70120FC
:1017C000F6E700002DE9F047040029D04A4A4FF01F
:1017D00000092068494B4A4D9042C4F8289006D031
:1017E000984204D0A84202D0E1680F2918D8E168D5
:1017F0004FF0010AE76B0831C9080AEB571671432D
:10180000904205D0984203D0A84201D0082907D8B9
:10181000904203D0984201D0A84204D1102902D9A5
:101820000120BDE8F08794F8810020B9204684F8B3
:10183000809000F067F8022084F881002068016839
:1018400021F001010160A069B0F1806F0AD16068E8
:10185000B0F5800F06D1A06B20B92068016841F473
:1018600080510160A56AE0692368E16B2843E26862
:10187000084310439860D4E90D02D4E905C1636AB6
:1018800025691843D4F820800A432668104328436A
:10189000A56DD4E90172D4E9123140EA0C0040EAA6
:1018A000080038430843104318432843F060606839
:1018B00068B92068816821F4C05141F400618160F9
:1018C0002068816821F4C06141F4806181602068F2
:1018D000016D21F0010101656068400206D52068B4
:1018E000626DC16821F000411143C160C4F8849069
:1018F00084F881A0002094E70030014000380040C7
:10190000003C004010B586B0044614216846FEF73E
:10191000E6FC1349206888421FD11248016841F44F
:1019200000510160006800F4005005900D48103827
:10193000016841F01001016000680523742100F086
:10194000100005900020009102226946CDE9012097
:10195000CDE903030448FEF7F3FC06B010BD000018
:1019600000340140F044025800100258401EB0F10B
:10197000807F10B501D3012010BD4FF0E0246061DD
:101980000F21601700F0F0FE0020A0610721216107
:1019900010BD00002DE9F04390F83C20012A42D010
:1019A000012280F83C2051F80C4BDFF880804FF08A
:1019B000000991E8680051E9022723F44073B1F867
:1019C0000CC03B43CF6923F480631343026823F4C4
:1019D0000063234323F4805343EA050323F40053B5
:1019E00043EA060323F4804343EA07030C3923F454
:1019F0007023424543EA0C4302D00D4CA2420CD165
:101A00008D8C23F47006D1E9073446EA055121F0A4
:101A10008071194321F000732343536480F83C9094
:101A20000020BDE8F0830220FBE700000000014039
:101A30000004014070B590F83C20012A24D0134CDA
:101A4000012580F83C50022280F83D20026853684E
:101A5000A242966802D00E4CA24203D14C6823F4F5
:101A6000700323430C6823F0700389681C4354609F
:101A7000002326F0800602683143916080F83D50D3
:101A800080F83C30184670BD022070BD0000014057
:101A90000004014010B5040003D094F83D0010B1DB
:101AA00007E0012010BD002084F83C00204600F033
:101AB0000DF8022084F83D002068211D00F026FC6E
:101AC000012084F83D00002010BD000008B500682A
:101AD0000649884208D10648016841F001010160C9
:101AE000006800F00100009008BD00000000014007
:101AF000F044025870B5044690F83C00012814D018
:101B0000394B012584F83C50022084F83D002268BE
:101B10009068184020F47F4090600868702828D0B2
:101B200010DC10F00F0F03D04BE04FF0020070BD3F
:101B30004FEA2012072A44D2DFE802F051515151F6
:101B400049323A00B0F1101F49D009DCB0F5805F8E
:101B500037D0B0F5005F17D0B0F5801F31D13EE02F
:101B6000A0F5801120393AD0102938D0202928D169
:101B700035E04A682068D1E9021300F036FC20689D
:101B8000816841F0770109E04A682068D1E90213D1
:101B900000F02BFC2068816841F48041816010E0F6
:101BA000CA684968206800F0BBFD2068502106E043
:101BB000CA684968206800F0C4FD2068602100F010
:101BC0001DFC002084F83D5084F83C0070BDCA68BC
:101BD0004968206800F0A4FD20684021EFE72268F2
:101BE00001461046EBE7000088FFCEFF10B586B037
:101BF000044614216846FEF772FB0E4920688842AD
:101C000016D10D48016841F0100101600068012300
:101C1000022200F01000059000204FF48041009156
:101C20006946CDE90120CDE903030448FEF788FBAE
:101C300006B010BD00000140E044025800100258F8
:101C400070B5044690F83C000D4601280ED00126E0
:101C500084F83C60022084F83D000C2A45D007DC63
:101C60005AB1042A1BD0082A78D12CE0022070BD7A
:101C7000102A4ED0142A71D15DE0206800F0C8FB14
:101C80002068816941F0080181612068816921F043
:101C90000401816120682A698169114311E020688B
:101CA00000F00AFC2068816941F4006181612068CC
:101CB000816921F48061816120682969826942EA31
:101CC000012181614AE0206800F042FC2068C1697E
:101CD00041F00801C1612068C16921F00401C161BE
:101CE00020682A69C169114311E0206800F076FC80
:101CF0002068C16941F40061C1612068C16921F4B3
:101D00008061C16120682969C26942EA0121C1611B
:101D100024E0206800F098FC2068416D41F0080143
:101D200041652068416D21F00401416520682A6900
:101D3000416D114311E0206800F0BCFC2068416D4A
:101D400041F4006141652068416D21F48061416585
:101D500020682969426D42EA01214165002084F82A
:101D60003D6084F83C0070BD10B5040003D094F8C9
:101D70003D0010B107E0012010BD002084F83C00B8
:101D8000204600F00CF8022084F83D002068211D58
:101D900000F0BCFA012084F83D00002010BD70471F
:101DA00010B501220446006800F012FB11482168BA
:101DB00081420BD01048814208D01048814205D0A2
:101DC0000F48814202D00F48814203D1486C40F451
:101DD0000040486420680C4A81681140062906D0FA
:101DE000B1F5803F03D0016841F00101016000209E
:101DF00010BD00000000014000040140004001400F
:101E0000004401400048014007000100FEE70000D7
:101E100010B586B014216846FEF761FA14480168CF
:101E200041F010010160016801F0100105910168A5
:101E300041F080010160006801220E4C00F080003A
:101E40000590D1022046FEF779FB002220464FF490
:101E50004051FEF773FB012100224FF460508DE8E2
:101E60000700204603916946FEF76AFA06B010BDE6
:101E7000E044025800100258F0B410484FF48006B5
:101E80000F220D4FF5010021AB12C0E90212E02232
:101E9000C0E90931C1624FF0A0444163C0E90E12AC
:101EA00001644164016541658165C0E90654C0E98A
:101EB0000076F0BCFFF786BC00340140140000201F
:101EC00030B599B000241C21009412A8019402940A
:101ED0000394049405940694FEF701FA2C2107A8B4
:101EE000FEF7FDF922484FF4AF714FF4A7721F4D72
:101EF000EF23C0E90241C0E904428461C0E9005314
:101F0000FFF7C8FDA814009019486946FFF7F2FDD5
:101F10001748FFF729FF164804A90494059406946E
:101F2000FFF788FD12AB6020A621AA1583E81300F5
:101F3000CDE916420E480C2212A91894FFF780FE34
:101F4000681407940894099401030A94CDE90B409E
:101F5000CDE90E41064807A90D9410941194FFF79E
:101F600019FD0348FFF742FE19B030BD00000140E3
:101F70009C000020FEE77047704700002DE9F04705
:101F8000454D044689464FF0000A2868C043800743
:101F90000AD0414E283E306820F080603060FEF765
:101FA000D9FA0746B04608E00120BDE8F08700BF37
:101FB000FEF7D0FAC01B022867D8D8F8000000014D
:101FC000F6D4206829684FF4FE0721F47C313E02E4
:101FD00041EA00302860207AA389B4F804C04002A6
:101FE0002D4D2D495B1E227CACF1010C1035091DD5
:101FF000A0F5007080B2521ECCF3080C07EA034330
:1020000040EA0C00184306EA0262104328600868A0
:10201000626920F0C000104308600A68A06922F0DD
:10202000200202430A60281D0A6822F010020A609A
:1020300002684FF6F873E4699A4342EAC402026008
:102040000868B9F1000F40F010020A6011D008686A
:10205000B9F1010F11D040F400100860D8F8000069
:10206000444640F08060C8F80000FEF773FA054669
:102070000DE0086840F40020EFE740F48010ECE742
:10208000FEF768FA401B022801D903208DE720687B
:102090000001F5D5504688E7284402582DE9F0475D
:1020A000454D044689464FF0000A2868C043800722
:1020B0000AD0414E283E306820F080503060FEF754
:1020C00049FA0746B04608E00120BDE8F08700BFA6
:1020D000FEF740FAC01B022867D8D8F8000080003D
:1020E000F6D4208829684FF4FE0721F07C713E0267
:1020F00041EA00502860207AA389B4F804C0400265
:102100002D4D2D495B1E227CACF1010C1835091DAB
:10211000A0F5007080B2521ECCF3080C07EA03430E
:1021200040EA0C00184306EA02621043286008687F
:10213000626920F44060104308600A68A06922F4D4
:10214000007202430A60281D0A6822F480720A6045
:1021500002684FF6F873E4699A4342EAC4020260E7
:102160000868B9F1000F40F480720A6011D0086865
:10217000B9F1010F11D040F080700860D8F800006C
:10218000444640F08050C8F80000FEF7E3F90546E9
:102190000DE0086840F48000EFE740F40000ECE751
:1021A000FEF7D8F9401B022801D903208DE72068EB
:1021B0008000F5D5504688E7284402587047FEF75E
:1021C000CFB9000070B5CCB04C212FA8FEF787F82E
:1021D000202142A8FEF783F8BC216846FEF77FF86D
:1021E0000220FEF751FA204800242049026842F4F8
:1021F0004042026002680A6842F001020A6009680F
:1022000001F001014A9101688904FCD50DF1E40C4B
:102210000521C022022038908CE807003C90082558
:102220003D90C3033E900126CDE93F5441942FA831
:10223000CDE92F63FFF76AF840203F210301CDE984
:1022400045500322CDE9470342AB499042A883E8B9
:1022500016000421FEF79CFEA80218940090684620
:10226000FEF73AFA4CB070BD184802582C040058DA
:10227000214A30B5214914680020204B44F47004F1
:10228000146010330A681E4D42F001020A601860A3
:102290000A681A4B2A400A6018331C1D251D174A6C
:1022A000186028322060131D28601C1D251D106039
:1022B0002A1D1860131D20601C1D2860251D10603C
:1022C0001860206028600A680C4B0E4C22F48022B3
:1022D00060330A60186020686FF30F00B0F1005F90
:1022E00003D209490120C1F808014FF000600249FA
:1022F0008039086030BD000088ED00E000440258DD
:102300007FEDF6EA0010005C008000512DE9F047F7
:10231000274B4FF0804A274D02689842264E274FA0
:10232000274C09D0504507D0A84205D0B04203D071
:10233000B84201D0A04205D1D1F804C022F0700209
:102340004CEA0202DFF87CC0DFF87C809842DFF8BC
:102350007C900FD050450DD0A8420BD0B04209D090
:10236000B84207D0A04205D0604503D0404501D017
:10237000484503D1CD6822F440722A434D6922F0CA
:1023800080022A43026098428A68C2620A688262B6
:1023900007D0A04205D0604503D0404501D0484554
:1023A00001D10969016301214161BDE8F0870000A5
:1023B000000001400004004000080040000C004004
:1023C0000004014000400140004401400048014039
:1023D00010B5046A012301F01F018B409C43046285
:1023E0008A40016A1143016210BD42EA03228368F8
:1023F0000A4323F47F410A4382607047034B82689B
:102400001A400A4342F00701816070478FFFCFFFF7
:102410002DE9F04F026ADFF88880DFF8889022F01B
:102420000102DFF884A0DFF884B0214F0262DFF8F8
:1024300084C0066A4268836926F002060D68B842C5
:102440008C6803EA0C0323F0030344EA060445EA1C
:10245000030507D0404505D0484503D0504501D07D
:10246000584505D1CB6824F00804234323F0040425
:10247000B84207D0404505D0484503D0504501D06B
:10248000584505D122F44076D1E9053233431A4349
:1024900042608561496841630462BDE8F08F0000D5
:1024A0000004014000400140004401400048014058
:1024B000000001408FFFFEFFF0B5026A1E4E1F4C68
:1024C00022F01002DFF878E00262056A4368826950
:1024D00025F02005D1F808C0A0420F6802EA0602E4
:1024E00022F4407245EA0C1542EA072201D07045F9
:1024F00006D1CE6825F0800545EA061525F0400591
:10250000A0420AD0704508D00E4CA04205D00E4C17
:10251000A04202D00D4CA04207D1D1E9054623F4D8
:10252000406343EA840343EA860343608261496867
:1025300081630562F0BD0000FF8FFFFE00000140D7
:1025400000040140004001400044014000480140B7
:10255000F0B5026A1C4D1D4E22F48072A842026240
:10256000026A4368C76922F40072D1F808C00C6897
:1025700027F0730742EA0C2244EA070401D0B04274
:1025800006D1CF6822F4006242EA072222F4806278
:10259000A8420AD0B04208D00D4DA84205D00D4D3A
:1025A000A84202D00C4DA84207D1D1E9055623F428
:1025B000405343EA051343EA06134360C461496884
:1025C000C1630262F0BD0000000001400004014050
:1025D00000400140004401400048014070B5026ADB
:1025E000144B22F4805202629842036A4268C46922
:1025F00023F400538E680D6824F4E64443EA06335E
:1026000044EA05240BD00C4DA84208D00B4DA8423B
:1026100005D00B4DA84202D00A4DA84204D14D6905
:1026200022F4804242EA85124260C4614968016432
:10263000036270BD00000140000401400040014001
:102640000044014000480140F0B5026A22F48032A3
:102650000262134F056A4268446D25F400350E8905
:10266000B8420B6824F0700445EA064543EA0403C7
:102670000BD00C4CA04208D00B4CA04205D00B4C08
:10268000A04202D00A4CA04204D14C6922F480320C
:1026900042EA042242604365496881650562F0BDF3
:1026A000000001400004014000400140004401409E
:1026B00000480140F0B5026A22F480120262134F12
:1026C000046A4268436D24F400140E89B8420D6810
:1026D00023F4E04344EA065443EA05230BD00C4DAF
:1026E000A84208D00B4DA84205D00B4DA84202D0FD
:1026F0000A4DA84204D14D6922F4003242EA8522F3
:10270000426043654968C1650462F0BD0000014054
:1027100000040140004001400044014000480140E5
:1027200010B5036A046A23F00A0324F0010404626A
:1027300084690B4324F0F00141EA021181610362D4
:1027400010BD10B5036A23F0100303628369046AA5
:1027500023F4704324F0A00443EA0232826144EA85
:102760000111016210BDFEE7090700284FEA11615F
:1027700004DB00F1E02080F80014704700F00F0047
:1027800000F1E02080F8141D704702E008C8121F15
:1027900008C1002AFAD170477047002001E001C14A
:1027A000121F002AFBD17047BFF34F8FBFF36F8F0B
:1027B000214900200860BFF34F8FBFF36F8F1F4A7E
:1027C000116841F400311160BFF34F8FBFF36F8F79
:1027D0001A4970310860BFF34F8F081F43F6FF742A
:1027E0000068154D1035C0F34E31C0F3C90304EA3B
:1027F0004116184646EA80772F60401EFAD2491EDD
:10280000F5D2BFF34F8F106840F480301060BFF3F3
:102810004F8FBFF36F8FFDF7ABFEFFF7D3FCFFF7D2
:10282000F7FAFFF729FBFFF74BFB05480C21FFF7F1
:10283000B7FA00F007F8FEE750EF00E014ED00E013
:102840009C00002070B50E4D4FF40064002221461C
:102850002846FDF773FE0122284616033146FDF790
:102860006DFE6420FDF75AFD012221462846FDF742
:1028700065FE31462846BDE870400022FDF75EBE89
:1028800000100258000000000102030401020304CA
:1028900006070809B4280008000000201400000002
:1028A0008A270008C828000814000020CC04000073
:1028B0009A2700080100000010000000000000003E
:0828C0000090D0030090D0034A
:040000050800029954
:00000001FF
